:100000000C9434000C9451000C9451000C94510049
:100010000C94AA000C9451000C9451000C945100C3
:100020000C9451000C9451000C9451000C949800C5
:100030000C9451000C9451000C9451000C945100FC
:100040000C9451000C9451000C946E010C945100CE
:100050000C9451000C9451000C9451000C945100DC
:100060000C9451000C94510011241FBECFEFD8E026
:10007000DEBFCDBF12E0A0E0B1E0E2E2F1E102C0FC
:1000800005900D92AE31B107D9F722E0AEE1B2E0B2
:1000900001C01D92AA35B207E1F70E9467030C94D4
:1000A0008F080C940000AF92BF92CF92DF92EF9234
:1000B000FF920F931F93CF93DF93C1E8D0E0288185
:1000C00028602883EFE6F0E0208122602083FC0195
:1000D000EE0FFF1FE258FE4F80819181880F991F1C
:1000E000192F110F110B5C01C12ED12EE12EF12E13
:1000F000012F20E930ED43E050E060E070E080E067
:1001000090E00E94CD04309389002093880088817C
:1001100081608883888182608883DF91CF911F917D
:100120000F91FF90EF90DF90CF90BF90AF90089528
:100130001F920F920FB60F9211248F939F9385B148
:1001400098E0892785B99F918F910F900FBE0F90EE
:100150001F9018951F920F920FB60F9211242F9394
:100160003F934F935F936F937F938F939F93AF933F
:10017000BF9380912602909127028430914034F001
:1001800083E091E0909327028093260280912602DB
:100190009091270297FF04C0109227021092260226
:1001A00046B14295417056B155FB552750F98091A3
:1001B000220290912302892BC9F480912002909110
:1001C0002102892B99F4413039F481E090E0909339
:1001D00023028093220252C0513009F064C081E0B2
:1001E00090E0909321028093200254C080912202DB
:1001F0009091230281309105A1F420912002309149
:100200002102232B71F4513029F490932102809321
:10021000200234C0411147C01092230210922202E2
:1002200039C080912202909123020197A1F480911C
:10023000200290912102019771F4411105C01092A2
:100240002302109222021AC051112DC010922102D5
:10025000109220021FC08091220290912302892BCC
:1002600011F5809120029091210281309105D9F4FD
:1002700051110AC010922102109220028091260290
:100280009091270201960BC0413069F490932302AC
:1002900080932202809126029091270201979093E9
:1002A00027028093260280912602909127026AE01D
:1002B00070E00E94B7047093290260932802BF91F6
:1002C000AF919F918F917F916F915F914F913F91EE
:1002D0002F910F900FBE0F901F9018951F920F92A5
:1002E0000FB60F9211248F939F93EF93FF938091FA
:1002F000C600803441F48093430281E080931E0263
:1003000010921F0227C0843291F490911E0297FD33
:100310000EC0E92FFF27E7FDF095ED5BFD4F8083D1
:100320009F5F90931E0281E080931F0213C09FEB9A
:10033000980F9A3168F490911E02E92FFF27E7FD8C
:10034000F095ED5BFD4F80839F5F90931E0202C08E
:1003500010921E02FF91EF919F918F910F900FBE0F
:100360000F901F901895BF92CF92DF92EF92FF925D
:100370000F931F93CF93DF9300D000D000D0CDB761
:10038000DEB78C01B62EBB0C6B2D80E00E94FF0205
:100390000A511E4FF801A0813081B0E0A05DBE4F30
:1003A0002C91822F992787FD90959F932F93E32F70
:1003B000F0E0EC59FE4F2081822F992787FD909520
:1003C0009F932F9336EFE32E31E0F32EFF92EF92BF
:1003D0001F9284E08F93CE0101966C01DF928F9380
:1003E0000E94BD05C6010E9448036B2D81E00E945A
:1003F000FF02D801EC911F9280E28F93F0E0E65B60
:10040000FE4F2081822F992787FD90959F932F93F0
:10041000FF92EF921F9282E08F938E010B5F1F4F2E
:100420001F930F930E94BD05C8010E9448030FB699
:10043000F894DEBF0FBECDBF26960FB6F894DEBF90
:100440000FBECDBFDF91CF911F910F91FF90EF9025
:10045000DF90CF90BF9008950F931F93CF93DF93BA
:100460008C01C0E0D0E0BE01CE01800F911F0E9440
:10047000B3012196C830D105B1F7DF91CF911F911B
:100480000F9108950F931F93CF93DF938C01C0E0DA
:10049000D0E0F80181918F0190E00E9453002196F5
:1004A000FFEF22E587E0F15020408040E1F700C0F7
:1004B0000000C830D10569F7809181008C7F80935E
:1004C0008100DF91CF911F910F9108950F931F939A
:1004D000CF93DF9397FD0196EC01D595C795809159
:1004E0002802909129028E010A511E4FF801808343
:1004F000BE01CE010E94B301F8016081CE01DF91FF
:10050000CF911F910F910C94D707E3E4F2E0CF0154
:10051000835492408617970744F48091C00085FF6A
:10052000FCCF81918093C600F2CF0895E82FFF277A
:10053000E7FDF095E45DFD4F8081992787FD90955B
:100540000E9453002FEF82E597E0215080409040B9
:10055000E1F700C00000E1E8F0E080818C7F80835B
:100560000895CF92DF92EF92FF920F931F93CF9354
:10057000DF937C016B010DE212E0C1E0D0E0CC160C
:10058000DD066CF0F701EC0FFD1F80818154F8014E
:1005900081938F018C2F0E9496022196F0CFDF91DC
:1005A000CF911F910F91FF90EF90DF90CF90089522
:1005B00080E680937C0087E880937A0008959BB161
:1005C0009F709BB92BB130E1839FC0011124282B70
:1005D0002BB9299A299A29980895CF93C82F15B82D
:1005E00082958F700E94DF028C2F0E94DF028FE3C2
:1005F0009FE10197F1F700C00000CF9108958111AC
:1006000002C080E803C0813021F480EC860F0C9496
:10061000ED0208958FE59AEE0197F1F700C0000012
:1006200083E00E94DF028FE19EE40197F1F700C0B2
:10063000000083E00E94DF028FED91E00197F1F767
:1006400000C0000083E00E94DF0282E00E94DF021F
:100650008FE39FE10197F1F700C0000088E20E945C
:10066000ED028FE00C94ED02CF93C82F81E085B9A5
:100670008C2F82958F700E94DF028C2F0E94DF02E8
:100680008FE39FE10197F1F700C00000CF9108953B
:10069000EF92FF921F93CF93DF931F92CDB7DEB7F8
:1006A000182F8FE099830E94ED02E12E9981F92E97
:1006B000F70181917F01882319F00E943403F8CF5C
:1006C0000F90DF91CF911F91FF90EF900895CF93FE
:1006D000DF93CDB7DEB7A8970FB6F894DEBF0FBE95
:1006E000CDBF80EF8AB983E084B90E940A030E94DB
:1006F000D802239A449A459A5A9A5B9A8091680044
:1007000082608093680080916C00806380936C00AD
:100710008091C10080688093C100789460E080E09F
:100720000E94FF0281E00E94ED026BEF71E0CE01BA
:1007300001960E94B605CE0101960E944803CE01A3
:1007400001960E9448032FEF83ED90E321508040F3
:100750009040E1F700C0000081E00E94ED0280E0DF
:1007600090E00E94BF078F3FC1F4809124029091D6
:1007700025020E942C02609124027091250281E0E2
:100780000E94FF0207E610E056E0B52EEE24E39447
:10079000F12C7EE0C72ED12C4CC000E010E0C80147
:1007A0000E94BF07F801EA51FE4F80830F5F1F4F81
:1007B00008301105A1F7D9CF80917A0086FDFCCFD2
:1007C000A09079004A9911C081E00E94ED0263E196
:1007D00072E0CE0181960E94B605CE0181960E94FC
:1007E000480386EE91E00E9442024B9B28C081E4C0
:1007F0008A0D833108F45AC080912A0290912B020D
:10080000019731F480912402909125020E946602A2
:1008100027E22A1508F061C088E78A0D873208F4BC
:1008200081C048E050E060E070E086EE91E00E9418
:10083000C70780917A00806480937A00BDCF81E001
:100840000E94ED0269E172E0CE0181960E94B60538
:10085000CE0181960E9448031093C5000093C40006
:100860008091C10088618093C100B092C2003B9A20
:10087000439867E170E08AE191E00E9485028091EF
:100880001F02813009F0B3CF64E170E083E492E0AD
:100890000E94B1022FEF82E597E021508040904006
:1008A000E1F700C0000010921F02A1CF80912A0240
:1008B00090912B02892B29F4F0922B02E0922A02CC
:1008C0009BCF80912A0290912B02019709F094CF3F
:1008D00010922B0210922A028FCF809124029091C5
:1008E00025020E9729F4109225021092240294CF2B
:1008F0008091240290912502029690932502809384
:100900002402609124027091250281E00E94FF027E
:100910008FEF93ED20E3815090402040E1F700C03D
:1009200000007ACF8091240290912502892B29F42E
:10093000D0922502C092240274CF8091240290911B
:10094000250202979093250280932402609124024D
:100950007091250281E00E94FF028FEF93ED20E36A
:10096000815090402040E1F700C000005ACF97FB33
:10097000072E16F4009407D077FD09D00E94A20537
:1009800007FC05D03EF4909581959F4F0895709592
:1009900061957F4F0895689401C0E894F92FF12B79
:1009A00012F00C94FF04A0E0B0E0E9EDF4E00C9448
:1009B0007105092E059422F40E945B05112392F41F
:1009C000F0E80F26FFEFE094F09400951095B094B6
:1009D000C094D094A194BF0ACF0ADF0AEF0AFF0A9D
:1009E0000F0B1F0B0E940A0507FC0E945B05CDB789
:1009F000DEB7ECE00C948D05689401C0E8948F920A
:100A00009F92CF93DF930E940A05DF91CF919F9031
:100A10008F90089588249924F401E401B0E49F9311
:100A2000AA279A158B049C04ED05FE05CF05D00777
:100A3000A10798F4AD2FDC2FCF2FFE2FE92D982C96
:100A4000892E982F872F762F652F542F432F322FE3
:100A50002227B85031F7BF9127C01B2EBF91BB276B
:100A6000220F331F441F551F661F771F881F991FB2
:100A7000881C991CEE1FFF1FCC1FDD1FAA1FBB1F68
:100A80008A149B04EC05FD05CE05DF05A007B10720
:100A900048F08A189B08EC09FD09CE09DF09A00B74
:100AA000B10B21601A94E1F62EF49401AF01BE015E
:100AB000CD01000C089560957095809590953095C6
:100AC0004095509521953F4F4F4F5F4F6F4F7F4F50
:100AD0008F4F9F4F08952F923F924F925F926F9248
:100AE0007F928F929F92AF92BF92CF92DF92EF92BE
:100AF000FF920F931F93CF93DF93CDB7DEB7CA1B3F
:100B0000DB0B0FB6F894DEBF0FBECDBF09942A8869
:100B1000398848885F846E847D848C849B84AA8411
:100B2000B984C884DF80EE80FD800C811B81AA819E
:100B3000B981CE0FD11D0FB6F894DEBF0FBECDBF69
:100B4000ED010895AA1BBB1B51E107C0AA1FBB1FE3
:100B5000A617B70710F0A61BB70B881F991F5A9549
:100B6000A9F780959095BC01CD010895FB01DC01AA
:100B700001900D920020E1F70895AEE0B0E0E3ECC3
:100B8000F5E00C9479050D891E898F89988D26E0F2
:100B90002C831A83098397FF02C080E090E80197B5
:100BA0009E838D83AE01455E5F4F698D7A8DCE0148
:100BB00001960E94ED054D815E8157FD0AC02F818F
:100BC0003885421753070CF49A01F801E20FF31F1E
:100BD00010822E96E4E00C949505ACE0B0E0E3EFD3
:100BE000F5E00C946B057C016B018A01FC01178216
:100BF0001682838181FFBDC1CE0101964C01F701B0
:100C00009381F60193FD859193FF81916F01882374
:100C100009F4ABC1853239F493FD859193FF81913D
:100C20006F01853229F4B70190E00E94FF07E7CFFA
:100C3000512C312C20E02032A0F48B3269F030F4BA
:100C4000803259F0833269F420612CC08D3239F042
:100C5000803339F4216026C02260246023C02860DC
:100C600021C027FD27C030ED380F3A3078F426FF39
:100C700006C0FAE05F9E300D1124532E13C08AE0A7
:100C8000389E300D1124332E20620CC08E3221F498
:100C900026FD6BC1206406C08C3611F4206802C0AA
:100CA000883641F4F60193FD859193FF81916F01A0
:100CB0008111C1CF982F9F7D9554933028F40C5FFC
:100CC0001F4FFFE3F9830DC0833631F0833771F096
:100CD000833509F05BC022C0F801808189830E5FF3
:100CE0001F4F44244394512C540115C03801F2E0A5
:100CF0006F0E711CF801A080B18026FF03C0652D26
:100D000070E002C06FEF7FEFC5012C870E94F407EF
:100D10002C0183012C852F77222E17C03801F2E099
:100D20006F0E711CF801A080B18026FF03C0652DF5
:100D300070E002C06FEF7FEFC5012C870E94E907CA
:100D40002C012C852068222E830123FC1BC0832DBF
:100D500090E048165906B0F4B70180E290E00E9496
:100D6000FF073A94F4CFF50127FC859127FE819186
:100D70005F01B70190E00E94FF0731103A94F1E063
:100D80004F1A51084114510471F7E5C0843611F02F
:100D9000893639F5F80127FF07C0608171818281AA
:100DA00093810C5F1F4F08C060817181882777FD98
:100DB0008095982F0E5F1F4F2F76B22E97FF09C098
:100DC00090958095709561957F4F8F4F9F4F2068CC
:100DD000B22E2AE030E0A4010E943108A82EA81803
:100DE00044C0853729F42F7EB22E2AE030E025C09A
:100DF000F22FF97FBF2E8F36C1F018F4883579F0C5
:100E0000B4C0803719F0883721F0AFC02F2F206190
:100E1000B22EB4FE0DC08B2D8460B82E09C024FF05
:100E20000AC09F2F9660B92E06C028E030E005C0AA
:100E300020E130E002C020E132E0F801B7FE07C057
:100E400060817181828193810C5F1F4F06C0608138
:100E5000718180E090E00E5F1F4FA4010E94310875
:100E6000A82EA818FB2DFF77BF2EB6FE0BC02B2D8A
:100E70002E7FA51450F4B4FE0AC0B2FC08C02B2D7E
:100E80002E7E05C07A2C2B2D03C07A2C01C0752C28
:100E900024FF0DC0FE01EA0DF11D8081803311F4A5
:100EA000297E09C022FF06C07394739404C0822F68
:100EB000867809F0739423FD13C020FF06C05A2CD6
:100EC000731418F4530C5718732C731468F4B70187
:100ED00080E290E02C870E94FF0773942C85F5CF69
:100EE000731410F4371801C0312C24FF12C0B7015D
:100EF00080E390E02C870E94FF072C8522FF17C01B
:100F000021FF03C088E590E002C088E790E0B701C8
:100F10000CC0822F867859F021FD02C080E201C00A
:100F20008BE227FD8DE2B70190E00E94FF07A51438
:100F300038F4B70180E390E00E94FF075A94F7CF9E
:100F4000AA94F401EA0DF11D8081B70190E00E949E
:100F5000FF07A110F5CF332009F451CEB70180E28D
:100F600090E00E94FF073A94F6CFF70186819781BF
:100F700002C08FEF9FEF2C96E2E10C948705F99960
:100F8000FECF92BD81BDF89A992780B50895DC0106
:100F9000A40FB51F4150504048F0CB01840F951F5E
:100FA0002E910E94D80741505040D0F70895262F27
:100FB000F999FECF92BD81BDF89A019700B402164F
:100FC00039F01FBA20BD0FB6F894FA9AF99A0FBEFD
:100FD0000895FC010590615070400110D8F780958C
:100FE00090958E0F9F1F0895FC01615070400190F5
:100FF0000110D8F7809590958E0F9F1F08950F933D
:101000001F93CF93DF93182F092FEB018B8181FD65
:1010100003C08FEF9FEF20C082FF10C04E815F8121
:101020002C813D81421753077CF4E881F9819F01AF
:101030002F5F3F4F39832883108306C0E885F985E9
:10104000812F0995892B29F72E813F812F5F3F4FF3
:101050003F832E83812F902FDF91CF911F910F918E
:101060000895FA01AA27283051F1203181F1E8943E
:101070006F936E7F6E5F7F4F8F4F9F4FAF4FB1E08B
:101080003ED0B4E03CD0670F781F891F9A1FA11D86
:10109000680F791F8A1F911DA11D6A0F711D811D87
:1010A000911DA11D20D009F468943F912AE0269F4C
:1010B00011243019305D3193DEF6CF010895462FAB
:1010C0004770405D4193B3E00FD0C9F7F6CF462F8C
:1010D0004F70405D4A3318F0495D31FD40524193F5
:1010E00002D0A9F7EACFB4E0A695979587957795B2
:1010F0006795BA95C9F700976105710508959B0139
:10110000AC010A2E06945795479537952795BA95C1
:10111000C9F7620F731F841F951FA01D0895F894CF
:02112000FFCFFF
:10112200007407A543EB8C47FCB27031F4BA8752C6
:1011320024F6CCA47E5A3818FADE40414243444594
:10114200464748494A4B4C4D4E4F505152535424F6
:10115200202023202320202320232023202023207B
:10116200232020232023202320202D333333333305
:101172003333333333333334343434343434343434
:10118200343434354143434444454646474741415C
:101192004243434444454646474741414243000097
:1011A20083008B0093009C00A500B000B900C4002E
:1011B200D000DC00E900F700060115012601370125
:1011C2004A015D01720188019F01B801D201EE015D
:1011D2000B020000010002000300040005000600EB
:1011E2000700080009000A000B000C000D000E00A9
:1011F2000F00100011001200130014001500160059
:10120200170018001900010203040506070890D010
:10121200030000000000256325630048616F7961C7
:101222006E67204368656E27732072696E67626518
:0E1232006C6C0066726F6E74006261636B001C
:00000001FF
